:100000000C9469010C9491010C9491010C94910150
:100010000C9491010C9491010C9491010C94910118
:100020000C9491010C9491010C94CA060C943C0719
:100030000C9491010C9491010C9491010C949101F8
:100040000C9491010C9491010C9491010C949101E8
:100050000C9491010C9491010C9491010C947309EE
:100060000C9491010C9491010C9491010C949101C8
:100070000C9491010C9491010C9491010C949101B8
:100080000C9491010C9491010C9491010C949101A8
:100090000C9491010C9491010C9491010C94910198
:1000A0000C9491010C9491010C949101D403D70309
:1000B000C603CA03D003F803F803F803DB03DF0326
:1000C000E303E903ED03F803F30300000000240059
:1000D00027002A002D003000000000002500280025
:1000E0002B002E0031000000000023002600290014
:1000F0002C002F000404040404030405020202027D
:1001000004030202020206060606060604040202B0
:100110000204040408020110408040102040804086
:10012000800802040180402010020110801020404D
:1001300040200000000200090F0000030401000C31
:1001400000000000000000000000000000000000AF
:1001500000080B0002020201000904000001020273
:1001600000000524001001052401010104240206F9
:100170000524060001070581031000400904010061
:10018000020A000000070502024000000705830282
:100190004000000403090441726475696E6F204CCD
:1001A0004C430041726475696E6F204C656F6E61DF
:1001B00072646F001201000200000040412336808B
:1001C00000010102030112010002EF02014041237C
:1001D000368000010102030105010905A101850422
:1001E00005091901290F15002501950F75018102D7
:1001F0009501750181030501093009310932158125
:10020000257F950375088102850515002501050ADE
:100210000901A1020508094B750195019102C0056C
:100220000A0902A1020508094B750195019102C056
:10023000050A0903A1020508094B75019501910200
:10024000C0050A0904A1020508094B750195019131
:1002500002C0050A0905A1020508094B75019501AF
:100260009102C0050A0906A1020508094B7501950E
:10027000019102C0050A0907A1020508094B750191
:1002800095019102C0050A0908A1020508094B75EC
:100290000195019102C0050A0909A1020508094B4F
:1002A000750195019102C0050A090AA10205080914
:1002B0004B750195019102C0050A090BA1020508C1
:1002C000094B750195019102C0950175059103C017
:1002D000BD0911241FBECFEFDAE0DEBFCDBF11E0B4
:1002E000A0E0B1E0E8E1F8E102C005900D92A2348F
:1002F000B107D9F721E0A2E4B1E001C01D92A13E0F
:10030000B207E1F711E0C9E6D1E004C02197FE0190
:100310000E94FF0BC836D107C9F70E94510A0C94FE
:100320000A0C0C940000FC0180916901811103C04A
:100330008FEF9FEF08959FB7F89482E08093E900D4
:100340002091F20030E01216130614F421E030E0A0
:100350002115310559F0289884E680936801809131
:10036000F10080838091F200882319F09FBFC901BA
:1003700008958BE68093E800F9CFCF92DF92EF9259
:10038000FF920F931F93CF93DF936C017A018B0140
:10039000C0E0D0E0CE15DF0589F0D8016D918D0168
:1003A000D601ED91FC910190F081E02DC6010995F7
:1003B000892B11F47E0102C02196ECCFC701DF9199
:1003C000CF911F910F91FF90EF90DF90CF90089504
:1003D000CF93DF931F92CDB7DEB76983DC01ED9138
:1003E000FC910280F381E02D41E050E0BE016F5F9F
:1003F0007F4F09950F90DF91CF91089583E080930F
:10040000E9008091F200882319F08AE38093E800E4
:100410000895CF93DF931F92CDB7DEB7FC0184859B
:10042000958597FD05C02FEF3FEF358724870BC0DB
:10043000CE0101960E949301019719F4898190E001
:1004400002C08FEF9FEF0F90DF91CF9108950F9330
:100450001F93CF93DF931F92CDB7DEB78C01FC01C2
:100460008485958597FF0EC0CE0101960E94930169
:10047000019719F4298130E002C02FEF3FEFF80116
:1004800035872487F801848595850F90DF91CF917A
:100490001F910F910895FC018485958597FD0BC0F0
:1004A0009FB7F89482E08093E9008091F2009FBFAB
:1004B00090E0019608959FB7F89482E08093E90058
:1004C0008091F2009FBF90E0089540915A015091B1
:1004D0005B01209158013091590142175307B4F440
:1004E0009091E8009570E1F39091E80092FD19C0B9
:1004F0008093F10080915A0190915B0101968F7376
:100500009927892B19F48EEF8093E80080915A0186
:1005100090915B01019690935B0180935A0181E079
:10052000089580E00895CF92DF92EF92FF920F93AB
:100530001F93CF93DF931F92CDB7DEB7182F062FEF
:10054000E42E862F880F8E5F99830E94650283E0D8
:100550000E946502F12EC12E9981D92E8C2D8F1902
:10056000801798F4F601E7FE02C0849101C08081F3
:100570000E946502182F80E00E9465028123FFEF30
:10058000CF1ADF0A8111EACF01C081E00F90DF911D
:10059000CF911F910F91FF90EF90DF90CF90089532
:1005A000DF92EF92FF920F931F93CF93DF93D82E9A
:1005B0008A017B01E40EF51EEB01CE15DF0571F01B
:1005C000D7FE03C0FE01849101C088810E946502AC
:1005D00021968111F2CF8FEF9FEF01C0C801DF910B
:1005E000CF911F910F91FF90EF90DF900895615090
:1005F00030F02091F100FC0120830196F8CF28987B
:1006000084E6809368010895BF92CF92DF92EF92C3
:10061000FF920F931F93CF93DF936C018B01EB013C
:100620009BEFB92E2097C1F07E01C134D1051CF09B
:1006300080E4E82EF12C8091E80082FFFCCFC80115
:100640008C1B9D0B6E2D8C0D9D1D0E94F702B09290
:10065000E800CE19DF09E6CFC801DF91CF911F91E5
:100660000F91FF90EF90DF90CF90BF900895CF93C0
:10067000DF93FC01DB01C281D381209719F47383DE
:10068000628308C088859985009711F0EC01FACF44
:10069000B987A887808112968C93129781811396CF
:1006A0008C931397908115968C911597890F808361
:1006B00080E014969C9114978917A0F49181C92F1A
:1006C000D0E0AE0140505F4F16962D913C911797A8
:1006D000280F311DE9012881EA0128839F5F91835A
:1006E0008F5FE7CF81E0DF91CF91089580914F0137
:1006F00081110DC082E080934B0184E080934C0116
:1007000010924E0110924D0181E080934F018BE4D5
:1007100091E008950F931F93CF93DF931F92CDB76E
:10072000DEB782E0898342E450E061E571E080E871
:100730000E94D0020E947603DC0112960D911C915A
:1007400013970115110569F0D801ED91FC91028014
:10075000F381E02DBE016F5F7F4FC801099597FFC0
:1007600007C089810F90DF91CF911F910F9108955C
:10077000F80100851185E5CF90E0FC013197EF305D
:10078000F105B0F5EA5AFF4F0C94FF0B8091800001
:100790008F7703C0809180008F7D809380000895C3
:1007A00080918000877FF9CF84B58F7702C084B5B0
:1007B0008F7D84BD0895809190008F7707C08091D0
:1007C00090008F7D03C080919000877F8093900080
:1007D00008958091C0008F7703C08091C0008F7D05
:1007E0008093C00008958091C200877F8093C200EB
:1007F0000895CF93DF93282F30E0F901EE5CFE4F90
:100800008491F901ED5EFE4FD491F901EC50FF4F58
:10081000C491CC2391F081110E94BC03EC2FF0E035
:10082000EE0FFF1FEA51FF4FA591B491EC91ED231C
:1008300081E090E021F480E002C080E090E0DF9170
:10084000CF9108951F93CF93DF93282F30E0F901C4
:10085000EE5CFE4F8491F901ED5EFE4FD491F901FB
:10086000EC50FF4FC491CC23C9F0162F81110E9488
:10087000BC03EC2FF0E0EE0FFF1FE852FF4FA591F5
:10088000B4918FB7F894111105C09C91ED2FE095AC
:10089000E92302C0EC91ED2BEC938FBFDF91CF9158
:1008A0001F910895CF93DF9390E0FC01ED5EFE4F22
:1008B0002491FC01EC50FF4F8491882361F190E07A
:1008C000880F991FFC01E653FF4FC591D491FC019D
:1008D000E852FF4FA591B491611109C09FB7F894F8
:1008E0008881209582238883EC912E230BC062306F
:1008F00061F49FB7F8943881822F80958323888391
:10090000EC912E2B2C939FBF06C08FB7F894E881F3
:100910002E2B28838FBFDF91CF9108953FB7F89496
:100920008091470190914801A0914901B0914A01FD
:1009300026B5A89B05C02F3F19F00196A11DB11D3A
:100940003FBFBA2FA92F982F8827820F911DA11D75
:10095000B11DBC01CD0142E0660F771F881F991FB2
:100960004A95D1F708958F929F92AF92BF92CF92FE
:10097000DF92EF92FF926B017C010E948E044B018B
:100980005C01C114D104E104F104F1F00E948E0471
:10099000DC01CB0188199909AA09BB09883E93405B
:1009A000A105B10570F321E0C21AD108E108F108F0
:1009B00088EE880E83E0981EA11CB11CC114D104DE
:1009C000E104F10419F7DDCFFF90EF90DF90CF90B5
:1009D000BF90AF909F908F9008958F929F92AF920B
:1009E000BF92CF92DF92EF92FF920F931F93CF931C
:1009F000DF9300D01F92CDB7DEB7382F8B018091E7
:100A00006901811103C08FEF9FEF7DC080915E016E
:100A100080FF05C08091E00082608093E0004A0181
:100A20008AEFF82E832F8770E82E9FE3C92E832F3D
:100A30008072B82E2AE3D22E832F8074A82E8114C0
:100A4000910409F457C08FB7F894E092E9009091AF
:100A5000E80095FF05C09091F2002C2D291B01C0E4
:100A600020E08FBF211110C0FA94FF2061F261E0F5
:100A700070E080E090E039834A835B830E94B30496
:100A800039814A815B81DBCF822F90E088169906FD
:100A90000CF4282D6FB7F894E092E9008091E800FB
:100AA00085FF26C0822F90E0881A990ABB2029F082
:100AB0002150A8F01092F100FBCFF80137FF07C0DA
:100AC000215058F074917093F1003196F9CF215074
:100AD00020F071917093F100FACF080F191F8091E7
:100AE000E80085FF0DC08114910411F4A11008C025
:100AF0006FBFA5CF5D9884E680935C01CA0103C0F7
:100B0000D092E800F5CF0F900F900F90DF91CF912A
:100B10001F910F91FF90EF90DF90CF90BF90AF901B
:100B20009F908F900895CF93DF93EC0180911201F5
:100B3000882331F083E00E94ED041816190634F082
:100B400081E090E09B838A8380E090E0DF91CF9109
:100B50000895EF92FF920F931F93CF93DF9303E1DA
:100B600011E0C0E0D0E0E82EF12CC7010C2E02C04D
:100B7000959587950A94E2F780FF02C061E001C075
:100B800060E0F80180810E94220421960F5F1F4FD0
:100B9000C930D10551F7DF91CF911F910F91FF908F
:100BA000EF900895CF93DF9300D01F92CDB7DEB7BB
:100BB000DC01FB0112968C91129790E02481358123
:100BC0008217930799F591818081813A31F481E010
:100BD000913069F1933051F52AC0813239F59B305B
:100BE00021F482811F968C931FC09A3021F4828158
:100BF00050968C9319C09930C9F4868197810397D8
:100C0000A9F463E070E0CE0101960E94040303970B
:100C100059F48B8190E0982F88272A81820F911DAB
:100C2000909361018093600181E001C080E00F90AA
:100C30000F900F90DF91CF910895DC01FB0188E4C4
:100C4000808389E4818384E482831D969C911D972F
:100C50009F709F5B93831D968D919C911E9724E0BE
:100C6000969587952A95E1F78F708F5B848385E051
:100C70000895EF92FF920F931F93CF93DF93FB01A1
:100C80002081213851F52381223239F5DC01129679
:100C90002C9130E04481558142175307F1F4EC0167
:100CA0000B851C85E12CF12C0115110591F0F80143
:100CB000448155816281738180E80E94D0028F3F18
:100CC000FFEF9F0769F0E80EF91ED8010D911C9106
:100CD000EBCF81E08F87C70105C080E090E002C0C4
:100CE0008FEF9FEFDF91CF911F910F91FF90EF90CA
:100CF0000895CF93DF93CDB7DEB769970FB6F89419
:100D0000DEBF0FBECDBFFC01DB018C918F5F8C93EA
:100D1000BE016F5F7F4F89E1DB011D928A95E9F784
:100D200029E0298384E08A8391E09D8383E08E8398
:100D30002A8721E22B879C879D879F8722E2288B29
:100D400027E02B8B25E02C8B8E8B20E430E0388F36
:100D50002F8B998F82818B8395858685998B8A8B42
:100D6000838180688D8B49E150E080E00E94D00251
:100D700069960FB6F894DEBF0FBECDBFDF91CF915D
:100D80000895FC0182818F5BFB01808381E00895DF
:100D90000E94050C1F920F920FB60F9211248F9391
:100DA0009F938091E1009091E100937F9093E10007
:100DB00083FF0FC01092E90091E09093EB00109236
:100DC000EC0092E39093ED001092690198E090930B
:100DD000F00082FF20C093E09093E9009091F20030
:100DE000992319F09AE39093E80090915C0199237C
:100DF00039F090915C01915090935C01992389F1B5
:100E000090916801992339F09091680191509093E5
:100E10006801992341F184FF10C08091E2008E7E29
:100E200081608093E2008091E1008F7E8093E100F9
:100E300080915E018E7E806111C080FF16C080911E
:100E4000E2008E7E80618093E2008091E1008E7EE0
:100E50008093E10080915E018E7E816080935E01CF
:100E600004C05D9ACDCF289AD6CF9F918F910F90D5
:100E70000FBE0F901F9018951F920F920FB60F92F2
:100E80001124CF92DF92EF92FF920F931F932F9333
:100E90003F934F935F936F937F938F939F93AF9302
:100EA000BF93EF93FF93CF93DF93CDB7DEB76C97EC
:100EB000DEBFCDBF1092E9008091E80083FFF4C14E
:100EC00068E0CE0145960E94F70282EF8093E80029
:100ED0008D8987FF05C09091E80090FFFCCF03C08B
:100EE0009EEF9093E800982F907609F0C6C09E89F7
:100EF0002F89188D91110CC0803829F480915F01E1
:100F00008093F10002C01092F1001092F10041C1F3
:100F1000422F50E0512B913051F481113AC14130B0
:100F2000510509F036C180915F018D7F0BC0933070
:100F300061F481112EC14130510509F02AC180911F
:100F40005F01826080935F0124C1953041F48091FC
:100F5000E80080FFFCCF20682093E3001AC19630A0
:100F600009F05FC0EB8CFC8C1092E90010925B01E1
:100F700010925A01123091F51092590110925801B5
:100F80000E948A0399E0BE016F5F7F4FDB01E92F6A
:100F90001D92EA95E9F799831A8391E09E8390EA7E
:100FA00098879AEF998720915A0130915B01275FCA
:100FB0003F4F3C832B838D831092E90010925B019D
:100FC00010925A01F0925901E092580149E050E024
:100FD00080E00E94D0020E948A03DBC0F092590197
:100FE000E09258010E947603DC011296ED90FC908D
:100FF0001397E114F10409F4BAC0D701ED91FC9103
:101000000480F581E02DBE016B5E7F4FC70109951D
:10101000009719F00CF0BDC0C0C0F701E084F18466
:10102000E8CF973009F4B9C0983021F481E080937B
:10103000F100AFC0993009F0ACC0837009F0ADC0C9
:10104000E1E0F1E081E021E036E39081992361F075
:101050008093E9002093EB0091919093EC00309302
:10106000ED008F5F873089F78EE78093EA0010925A
:10107000EA008F89809369018CC08B8D9C8D1092C2
:10108000E90010925B0110925A01909359018093EC
:101090005801898D811150C08E899D89913A59F4EA
:1010A000813209F07AC047E050E06BE071E080E007
:1010B0000E94D0026EC0913209F06FC0833289F471
:1010C000888D90E0982F88272F89822BA0E0B0E0B0
:1010D0008093070190930801A0930901B0930A013E
:1010E00058C0803239F467E070E08BE091E00E94F4
:1010F000040306C0823209F04CC08F89809312012C
:1011000080915D01882319F0EEEFFAE002C0E0E083
:10111000F8E080910B0190910C01A0910D01B0912C
:101120000E01803B9440A105B10509F088C0809173
:10113000120180FFA0C083C00E947603DC011296DA
:101140000D911C9113970115110539F1D801ED91FD
:10115000FC910190F081E02DBE016B5E7F4FC801D4
:101160000995811116C0F80100851185ECCF113069
:10117000C1F0133091F48F89882309F455C082306F
:10118000E9F440E860E183EA91E00E949302882359
:1011900021F08EEF8093E80087C081E28093EB001E
:1011A00083C08B8D9C8D089711F41093570180910B
:1011B0005701811136C064EB71E038C0813029F4E9
:1011C00040E86BE087E991E0E0CF833031F70E949F
:1011D0007603DC011296ED90FC9013978E010F5F61
:1011E0001F4F6801E114F10479F0D701ED91FC91F2
:1011F0000680F781E02DB801C7010995080F111D80
:10120000F701E084F184EECFD8011C92F601019041
:101210000020E9F73197BF016C197D0940E0C60154
:10122000B4CF66EC71E002C063E971E0611571054D
:1012300009F4B3CFFB01449150E080E839CF0FB6F9
:10124000F894A89580916000886180936000109266
:1012500060000FBEA895EE3F2AE0F20739F08091BA
:10126000FE0A9091FF0A9183808393CF1092FF0A28
:101270001092FE0A8ECFEE3F8AE0F80731F08081AF
:1012800091819093FF0A8093FE0A87E797E7918305
:1012900080839BE088E10FB6F894A8958093600066
:1012A0000FBE9093600075CF6C960FB6F894DEBFBA
:1012B0000FBECDBFDF91CF91FF91EF91BF91AF9165
:1012C0009F918F917F916F915F914F913F912F915E
:1012D0001F910F91FF90EF90DF90CF900F900FBE76
:1012E0000F901F9018951F920F920FB60F92112416
:1012F0002F933F938F939F93AF93BF93809143011D
:1013000090914401A0914501B09146013091420174
:1013100023E0230F2D3720F40196A11DB11D05C038
:1013200026E8230F0296A11DB11D20934201809350
:10133000430190934401A0934501B09346018091ED
:10134000470190914801A0914901B0914A0101964D
:10135000A11DB11D8093470190934801A0934901BD
:10136000B0934A01BF91AF919F918F913F912F917F
:101370000F900FBE0F901F90189510926D01109254
:101380006C0188EE93E0A0E0B0E080936E01909352
:101390006F01A0937001B09371018AE291E0909384
:1013A0006B0180936A018FEF9FEF90937701809399
:1013B00076018091D901811113C01092D40110924D
:1013C000D30188ED91E09093D6018093D50188EF09
:1013D00090E09093D8018093D70181E08093D90168
:1013E0008091CB01811137C081E08093BE01809351
:1013F000BF0124EC31E03093C1012093C001109271
:10140000C3011092C2012AE331E03093BB01209363
:10141000BA011092C6011092C5011092C801109233
:10142000C7018093C9018093CA0181EC8093C401F4
:101430000E947603FC0141812091BE0130E0240F1F
:10144000311D2830310524F46AEB71E00E94370326
:1014500081E08093CB01E091C501F091C601309706
:1014600039F483ED91E09093C6018093C5010AC0E1
:1014700080819181009711F0FC01FACF83ED91E01A
:10148000918380832091D7013091D8018091C70149
:101490009091C801820F931F9093C8018093C70158
:1014A0000895CF93DF93CDB7DEB728970FB6F894A2
:1014B000DEBF0FBECDBF789484B5826084BD84B595
:1014C000816084BD85B5826085BD85B5816085BD3F
:1014D00080916E00816080936E00109281008091F7
:1014E000810082608093810080918100816080937F
:1014F00081008091800081608093800080919100C4
:10150000826080939100809191008160809391002E
:10151000809190008160809390008091C1008460F0
:101520008093C1008091C10082608093C10080914E
:10153000C10081608093C1008091C300816080936D
:10154000C3008091C00082608093C0008091C2007F
:1015500081608093C20080917A00846080937A00D9
:1015600080917A00826080937A0080917A00816015
:1015700080937A0080917A00806880937A0010923C
:10158000690110925F0110925E018091D700816025
:101590008093D70080EA8093D80089B5806189BDA7
:1015A00089B5826089BD09B400FEFDCF61E070E0BD
:1015B00080E090E00E94B3048091D8008F7C80612D
:1015C0008093D8008091E000807F8093E00080913C
:1015D000E1008E7E8093E1008DE08093E200559AD9
:1015E000209AEEEFFFE7859194918B3F9C4D19F483
:1015F00081E080935D0168EE73E080E090E00E94FE
:10160000B30453E1E52E51E0F52E0DE111E062E067
:10161000F80181918F010E94520461E0F7018191EC
:101620007F010E945204F1E006321F0781F762E059
:1016300080E00E94520444244394512C612C44E0E5
:10164000742E00E012E03324339484ECA82E81E061
:10165000B82E9AE3892E91E0992E2BE9C22E2FE025
:10166000D22E2DE131E0E12CF12CF90181919F0185
:10167000EF8338870E94F9036091630170916401E0
:101680002F8138858130910571F0C2010E2C02C086
:10169000880F991F0A94E2F7682B792B70936401E5
:1016A000609363010EC00E2C02C0880F991F0A942C
:1016B000E2F7809590958623972390936401809319
:1016C0006301FFEFEF1AFF0A89E0E816F10469F6FB
:1016D00080916201811103C08091630104C08091F7
:1016E0006001909161010E94A90580E00E94F903C8
:1016F0000197F9F080916301909164018130910527
:1017000019F41092620115C08430910519F43092D9
:1017100062010FC08031910529F410936401009398
:10172000630107C08034910521F4709264016092D6
:101730006301909163018091640199838A83809110
:1017400065018B83809166018C83809167018D8315
:101750008091CB01811131C03092BE013092BF0126
:10176000B092C101A092C0011092C3011092C201B7
:101770009092BB018092BA011092C6011092C501ED
:101780001092C8011092C7013092C9013092CA016B
:1017900081EC8093C4010E947603FC014181209179
:1017A000BE0130E0240F311D2830310524F46AEBEE
:1017B00071E00E9437033092CB0184E08E8341E0D8
:1017C00050E0BE016A5F7F4F8091BD010E94ED0431
:1017D00097FD0AC08091BD0145E050E0BE016F5FFA
:1017E0007F4F80640E94ED04C6010197F1F780E00D
:1017F00090E0892B09F435CF0E94000024CFEE0F32
:10180000FF1F0590F491E02D099481E090E0F89499
:081810000C940A0CF894FFCFC0
:1018180000C18081000000FFFFFFFF00E100000021
:101828000000000102030405060708090A0B0C0D55
:1018380012131415161700000000E80193054B0257
:1018480009022702FE0100000000D20579063906C8
:021858001D066B
:00000001FF
