:100000000C9469010C947D090C9456090C942F09E9
:100010000C9408090C9491010C9491010C94E10842
:100020000C9491010C9491010C9424040C941B05E4
:100030000C9491010C9491010C9491010C949101F8
:100040000C9491010C9491010C9491010C949101E8
:100050000C9491010C9491010C9491010C949708CB
:100060000C9491010C9491010C9491010C949101C8
:100070000C9491010C9491010C9491010C949101B8
:100080000C9491010C9491010C9491010C949101A8
:100090000C9491010C9491010C9491010C94910198
:1000A0000C9491010C9491010C9491017D028002B9
:1000B0006F0273027902A102A102A10284028802E6
:1000C0008C0292029602A1029C0200000000240011
:1000D00027002A002D003000000000002500280025
:1000E0002B002E0031000000000023002600290014
:1000F0002C002F000404040404030405020202027D
:1001000004030202020206060606060604040202B0
:100110000204040408020110408040102040804086
:10012000800802040180402010020110801020404D
:1001300040200000000200090F0000030401000C31
:1001400000000000000000000000000000000000AF
:1001500000080B0002020201000904000001020273
:1001600000000524001001052401010104240206F9
:100170000524060001070581031000400904010061
:10018000020A000000070502024000000705830282
:100190004000000403090441726475696E6F204CCD
:1001A0004C430041726475696E6F204C656F6E61DF
:1001B00072646F001201000200000040412336808B
:1001C00000010102030112010002EF02014041237C
:1001D000368000010102030105010905A101850422
:1001E00005091901290F15002501950F75018102D7
:1001F0009501750181030501093009310932158125
:10020000257F950375088102850515002501050ADE
:100210000901A1020508094B750195019102C0056C
:100220000A0902A1020508094B750195019102C056
:10023000050A0903A1020508094B75019501910200
:10024000C0050A0904A1020508094B750195019131
:1002500002C0050A0905A1020508094B75019501AF
:100260009102C0050A0906A1020508094B7501950E
:10027000019102C0050A0907A1020508094B750191
:1002800095019102C0050A0908A1020508094B75EC
:100290000195019102C0050A0909A1020508094B4F
:1002A000750195019102C0050A090AA10205080914
:1002B0004B750195019102C0050A090BA1020508C1
:1002C000094B750195019102C0950175059103C017
:1002D000B50A11241FBECFEFDAE0DEBFCDBF11E0BB
:1002E000A0E0B1E0E8EFFDE102C005900D92AE3470
:1002F000B107D9F721E0AEE4B1E001C01D92A43FFF
:10030000B207E1F711E0C9E6D1E004C02197FE0190
:100310000E94970DC836D107C9F70E94490B0C946B
:10032000FA0E0C94000040916601509167012091F3
:1003300064013091650142175307B4F49091E800CD
:100340009570E1F39091E80092FD19C08093F1005F
:10035000809166019091670101968F739927892B8F
:1003600019F48EEF8093E800809166019091670107
:100370000196909367018093660181E0089580E083
:100380000895CF92DF92EF92FF920F931F93CF9336
:10039000DF931F92CDB7DEB7182F062FE42E862FDE
:1003A000880F8E5F99830E94930183E00E949301DE
:1003B000F12EC12E9981D92E8C2D8F19801798F48A
:1003C000F601E7FE02C0849101C080810E94930182
:1003D000182F80E00E9493018123FFEFCF1ADF0ADC
:1003E0008111EACF01C081E00F90DF91CF911F9181
:1003F0000F91FF90EF90DF90CF900895DF92EF92F2
:10040000FF920F931F93CF93DF93D82E8A017B0126
:10041000E40EF51EEB01CE15DF0571F0D7FE03C02B
:10042000FE01849101C088810E949301219681116F
:10043000F2CF8FEF9FEF01C0C801DF91CF911F91E5
:100440000F91FF90EF90DF900895615030F0209170
:10045000F100FC0120830196F8CF289884E6809370
:1004600076010895BF92CF92DF92EF92FF920F93A1
:100470001F93CF93DF936C018B01EB019BEFB92EA0
:100480002097C1F07E01C134D1051CF080E4E82E34
:10049000F12C8091E80082FFFCCFC8018C1B9D0BE2
:1004A0006E2D8C0D9D1D0E942502B092E800CE1984
:1004B000DF09E6CFC801DF91CF911F910F91FF9027
:1004C000EF90DF90CF90BF90089590E0FC013197BE
:1004D000EF30F105B0F5EA5AFF4F0C94970D80917B
:1004E00080008F7703C0809180008F7D8093800093
:1004F000089580918000877FF9CF84B58F7702C0FF
:1005000084B58F7D84BD0895809190008F7707C05A
:10051000809190008F7D03C080919000877F8093B1
:10052000900008958091C0008F7703C08091C00033
:100530008F7D8093C00008958091C200877F809353
:10054000C20008951F93CF93DF93282F30E0F90165
:10055000EE5CFE4F8491F901ED5EFE4FD491F901FE
:10056000EC50FF4FC491CC23C9F0162F81110E948B
:100570006502EC2FF0E0EE0FFF1FE852FF4FA59150
:10058000B4918FB7F894111105C09C91ED2FE095AF
:10059000E92302C0EC91ED2BEC938FBFDF91CF915B
:1005A0001F9108953FB7F8948091530190915401A1
:1005B000A0915501B091560126B5A89B05C02F3FCB
:1005C00019F00196A11DB11D3FBFBA2FA92F982F79
:1005D0008827820F911DA11DB11DBC01CD0142E0F4
:1005E000660F771F881F991F4A95D1F708950895C0
:1005F00080916E0190916F01A0917001B091710195
:10060000489B04C00196A11DB11D03C00197A1091B
:10061000B10980936E0190936F01A0937001B09324
:10062000710108958091720190917301A0917401FC
:10063000B09175014B9B04C00196A11DB11D03C073
:100640000197A109B1098093720190937301A0935E
:100650007401B09375010895CF93DF9300D01F927A
:10066000CDB7DEB7DC01FB0112968C91129790E0BA
:10067000248135818217930799F591818081813A90
:1006800031F481E0913069F1933051F52AC0813223
:1006900039F59B3021F482811F968C931FC09A30CC
:1006A00021F4828150968C9319C09930C9F48681C7
:1006B00097810397A9F463E070E0CE0101960E9450
:1006C0003202039759F48B8190E0982F88272A8172
:1006D000820F911D90936D0180936C0181E001C0A8
:1006E00080E00F900F900F90DF91CF910895DC0183
:1006F000FB0188E4808389E4818384E482831D96FE
:100700009C911D979F709F5B93831D968D919C91EB
:100710001E9724E0969587952A95E1F78F708F5B59
:10072000848385E00895EF92FF920F931F93CF93F8
:10073000DF93FB012081213851F52381223239F5E5
:10074000DC0112962C9130E0448155814217530709
:10075000F1F4EC010B851C85E12CF12C0115110540
:1007600091F0F801448155816281738180E80E9493
:10077000FE018F3FFFEF9F0769F0E80EF91ED801D9
:100780000D911C91EBCF81E08F87C70105C080E000
:1007900090E002C08FEF9FEFDF91CF911F910F91FB
:1007A000FF90EF900895CF93DF93CDB7DEB76997B1
:1007B0000FB6F894DEBF0FBECDBFFC01DB018C91FC
:1007C0008F5F8C93BE016F5F7F4F89E1DB011D92CC
:1007D0008A95E9F729E0298384E08A8391E09D8363
:1007E00083E08E832A8721E22B879C879D879F87C2
:1007F00022E2288B27E02B8B25E02C8B8E8B20E4AC
:1008000030E0388F2F8B998F82818B8395858685F9
:10081000998B8A8B838180688D8B49E150E080E0E1
:100820000E94FE0169960FB6F894DEBF0FBECDBFE1
:10083000DF91CF910895FC0182818F5BFB01808362
:1008400081E008950E94F50E1F920F920FB60F924D
:1008500011248F939F938091E1009091E100937F09
:100860009093E10083FF0FC01092E90091E0909314
:10087000EB001092EC0092E39093ED001092770160
:1008800098E09093F00082FF20C093E09093E900FD
:100890009091F200992319F09AE39093E8009091D7
:1008A0006801992339F09091680191509093680103
:1008B000992389F190917601992339F090917601ED
:1008C000915090937601992341F184FF10C080915B
:1008D000E2008E7E81608093E2008091E1008F7E55
:1008E0008093E10080916A018E7E806111C080FF5B
:1008F00016C08091E2008E7E80618093E20080913C
:10090000E1008E7E8093E10080916A018E7E81609D
:1009100080936A0104C05D9ACDCF289AD6CF9F916B
:100920008F910F900FBE0F901F901895CF93DF936C
:10093000FC01DB01C281D381209719F473836283A8
:1009400008C088859985009711F0EC01FACFB98726
:10095000A887808112968C931297818113968C932D
:100960001397908115968C911597890F808380E05D
:1009700014969C9114978917A0F49181C92FD0E007
:10098000AE0140505F4F16962D913C911797280F5E
:10099000311DE9012881EA0128839F5F91838F5FE0
:1009A000E7CF81E0DF91CF91089580915B018111C4
:1009B0000DC082E08093570184E08093580110922B
:1009C0005A011092590181E080935B0187E591E023
:1009D00008950F931F93CF93DF931F92CDB7DEB788
:1009E00082E0898342E450E061E571E080E80E94A2
:1009F000FE010E94D504DC0112960D911C91139703
:100A00000115110569F0D801ED91FC910280F38187
:100A1000E02DBE016F5F7F4FC801099597FF07C0AA
:100A200089810F90DF91CF911F910F910895F80167
:100A300000851185E5CF1F920F920FB60F921124FA
:100A4000CF92DF92EF92FF920F931F932F933F93DA
:100A50004F935F936F937F938F939F93AF93BF93C6
:100A6000EF93FF93CF93DF93CDB7DEB76C97DEBFE5
:100A7000CDBF1092E9008091E80083FFF4C168E0E7
:100A8000CE0145960E94250282EF8093E8008D8971
:100A900087FF05C09091E80090FFFCCF03C09EEF58
:100AA0009093E800982F907609F0C6C09E892F8910
:100AB000188D91110CC0803829F480916B018093BE
:100AC000F10002C01092F1001092F10041C1422FDA
:100AD00050E0512B913051F481113AC14130510510
:100AE00009F036C180916B018D7F0BC0933061F4AA
:100AF00081112EC14130510509F02AC180916B014D
:100B0000826080936B0124C1953041F48091E800AC
:100B100080FFFCCF20682093E3001AC1963009F0D3
:100B20005FC0EB8CFC8C1092E90010926701109270
:100B30006601123091F510926501109264010E94D5
:100B4000E90499E0BE016F5F7F4FDB01E92F1D9241
:100B5000EA95E9F799831A8391E09E8390EA988752
:100B60009AEF99872091660130916701275F3F4F87
:100B70003C832B838D831092E900109267011092C1
:100B80006601F0926501E092640149E050E080E086
:100B90000E94FE010E94E904DBC0F0926501E09230
:100BA00064010E94D504DC011296ED90FC9013972D
:100BB000E114F10409F4BAC0D701ED91FC9104806D
:100BC000F581E02DBE016B5E7F4FC701099500974F
:100BD00019F00CF0BDC0C0C0F701E084F184E8CF8B
:100BE000973009F4B9C0983021F481E08093F10086
:100BF000AFC0993009F0ACC0837009F0ADC0E1E03E
:100C0000F1E081E021E036E39081992361F0809367
:100C1000E9002093EB0091919093EC003093ED006C
:100C20008F5F873089F78EE78093EA001092EA00A1
:100C30008F89809377018CC08B8D9C8D1092E900F9
:100C40001092670110926601909365018093640190
:100C5000898D811150C08E899D89913A59F48132D4
:100C600009F07AC047E050E066E171E080E00E9460
:100C7000FE016EC0913209F06FC0833289F4888D15
:100C800090E0982F88272F89822BA0E0B0E08093F6
:100C9000070190930801A0930901B0930A0158C07D
:100CA000803239F467E070E086E191E00E94320220
:100CB00006C0823209F04CC08F8980931D0180915B
:100CC0006901882319F0EEEFFAE002C0E0E0F8E0F5
:100CD0008091160190911701A0911801B09119010E
:100CE000803B9440A105B10509F088C080911D01A9
:100CF00080FFA0C083C00E94D504DC0112960D9134
:100D00001C9113970115110539F1D801ED91FC9152
:100D10000190F081E02DBE016B5E7F4FC801099507
:100D2000811116C0F80100851185ECCF1130C1F09A
:100D3000133091F48F89882309F455C08230E9F487
:100D400040E860E183EA91E00E94C101882321F03C
:100D50008EEF8093E80087C081E28093EB0083C030
:100D60008B8D9C8D089711F4109363018091630122
:100D7000811136C064EB71E038C0813029F440E85D
:100D80006BE087E991E0E0CF833031F70E94D50432
:100D9000DC011296ED90FC9013978E010F5F1F4FB0
:100DA0006801E114F10479F0D701ED91FC9106801E
:100DB000F781E02DB801C7010995080F111DF70152
:100DC000E084F184EECFD8011C92F601019000205E
:100DD000E9F73197BF016C197D0940E0C601B4CF36
:100DE00066EC71E002C063E971E06115710509F418
:100DF000B3CFFB01449150E080E839CF0FB6F894AF
:100E0000A8958091600088618093600010926000D6
:100E10000FBEA895EE3F2AE0F20739F08091FE0A56
:100E20009091FF0A9183808393CF1092FF0A1092D2
:100E3000FE0A8ECFEE3F8AE0F80731F08081918183
:100E40009093FF0A8093FE0A87E797E79183808358
:100E50009BE088E10FB6F894A895809360000FBEE0
:100E60009093600075CF6C960FB6F894DEBF0FBEFE
:100E7000CDBFDF91CF91FF91EF91BF91AF919F9146
:100E80008F917F916F915F914F913F912F911F9122
:100E90000F91FF90EF90DF90CF900F900FBE0F90CB
:100EA0001F901895CF93DF93282F30E0F901EE5C67
:100EB000FE4F8491F901ED5EFE4FD491F901EC50A3
:100EC000FF4FC491CC2391F081110E946502EC2F59
:100ED000F0E0EE0FFF1FEA51FF4FA591B491EC91A6
:100EE000ED2381E090E021F480E002C080E090E01A
:100EF000DF91CF910895CF93DF9390E0FC01ED5EF9
:100F0000FE4F2491FC01EC50FF4F8491882361F146
:100F100090E0880F991FFC01E653FF4FC591D491D3
:100F2000FC01E852FF4FA591B491611109C09FB730
:100F3000F8948881209582238883EC912E230BC01E
:100F4000623061F49FB7F8943881822F80958323B3
:100F50008883EC912E2B2C939FBF06C08FB7F894FB
:100F6000E8812E2B28838FBFDF91CF9108958F9238
:100F70009F92AF92BF92CF92DF92EF92FF926B015E
:100F80007C010E94D2024B015C01C114D104E10436
:100F9000F104F1F00E94D202DC01CB018819990919
:100FA000AA09BB09883E9340A105B10570F321E071
:100FB000C21AD108E108F10888EE880E83E0981E75
:100FC000A11CB11CC114D104E104F10419F7DDCF57
:100FD000FF90EF90DF90CF90BF90AF909F908F9059
:100FE00008958F929F92AF92BF92CF92DF92EF922D
:100FF000FF920F931F93CF93DF9300D01F92CDB733
:10100000DEB7382F8B0180917701811103C08FEFFC
:101010009FEF7DC080916A0180FF05C08091E00054
:1010200082608093E0004A018AEFF82E832F877058
:10103000E82E9FE3C92E832F8072B82E2AE3D22E8A
:10104000832F8074A82E8114910409F457C08FB7A0
:10105000F894E092E9009091E80095FF05C0909126
:10106000F2002C2D291B01C020E08FBF211110C0E0
:10107000FA94FF2061F261E070E080E090E0398353
:101080004A835B830E94B70739814A815B81DBCF4A
:10109000822F90E0881699060CF4282D6FB7F894EB
:1010A000E092E9008091E80085FF26C0822F90E061
:1010B000881A990ABB2029F02150A8F01092F1005B
:1010C000FBCFF80137FF07C0215058F0749170939F
:1010D000F1003196F9CF215020F071917093F10019
:1010E000FACF080F191F8091E80085FF0DC0811409
:1010F000910411F4A11008C06FBFA5CF5D9884E6DC
:1011000080936801CA0103C0D092E800F5CF0F9028
:101110000F900F90DF91CF911F910F91FF90EF9063
:10112000DF90CF90BF90AF909F908F9008951F92C7
:101130000F920FB60F9211242F933F938F939F938B
:10114000AF93BF9380914F0190915001A0915101B5
:10115000B091520130914E0123E0230F2D3720F43E
:101160000196A11DB11D05C026E8230F0296A11D01
:10117000B11D20934E0180934F0190935001A09395
:101180005101B09352018091530190915401A0916B
:101190005501B09156010196A11DB11D80935301D7
:1011A00090935401A0935501B0935601BF91AF9114
:1011B0009F918F913F912F910F900FBE0F901F9095
:1011C00018951F920F920FB60F9211242F933F93F1
:1011D0004F935F936F937F938F939F93AF93BF933F
:1011E000EF93FF93E0911301F09114010995FF91A2
:1011F000EF91BF91AF919F918F917F916F915F918F
:101200004F913F912F910F900FBE0F901F90189507
:101210001F920F920FB60F9211242F933F934F936B
:101220005F936F937F938F939F93AF93BF93EF934E
:10123000FF93E0911101F09112010995FF91EF9157
:10124000BF91AF919F918F917F916F915F914F91DE
:101250003F912F910F900FBE0F901F9018951F92E6
:101260000F920FB60F9211242F933F934F935F93DA
:101270006F937F938F939F93AF93BF93EF93FF935E
:10128000E0910F01F09110010995FF91EF91BF914D
:10129000AF919F918F917F916F915F914F913F910E
:1012A0002F910F900FBE0F901F9018951F920F92C5
:1012B0000FB60F9211242F933F934F935F936F9329
:1012C0007F938F939F93AF93BF93EF93FF93E0919F
:1012D0000D01F0910E010995FF91EF91BF91AF9132
:1012E0009F918F917F916F915F914F913F912F913E
:1012F0000F900FBE0F901F9018951F920F920FB670
:101300000F9211242F933F934F935F936F937F938B
:101310008F939F93AF93BF93EF93FF93E0910B0154
:10132000F0910C010995FF91EF91BF91AF919F91C1
:101330008F917F916F915F914F913F912F910F907E
:101340000FBE0F901F901895EF92FF920F931F936F
:10135000CF93DF930EE111E0C0E0D0E0E82EF12C56
:10136000C7010C2E02C0959587950A94E2F780FF7D
:1013700002C061E001C060E0F80180810E94A20229
:1013800021960F5F1F4FC730D10551F7DF91CF91E5
:101390001F910F91FF90EF900895FC0180917701CC
:1013A000811103C08FEF9FEF08959FB7F89482E0FB
:1013B0008093E9002091F20030E01216130614F435
:1013C00021E030E02115310559F0289884E680931A
:1013D00076018091F10080838091F200882319F0DA
:1013E0009FBFC90108958BE68093E800F9CFCF92A3
:1013F000DF92EF92FF920F931F93CF93DF936C01D5
:101400007A018B01C0E0D0E0CE15DF0589F0D8016C
:101410006D918D01D601ED91FC910190F081E02D4F
:10142000C6010995892B11F47E0102C02196ECCFEB
:10143000C701DF91CF911F910F91FF90EF90DF9047
:10144000CF900895CF93DF931F92CDB7DEB7698316
:10145000DC01ED91FC910280F381E02D41E050E050
:10146000BE016F5F7F4F09950F90DF91CF91089577
:1014700083E08093E9008091F200882319F08AE3E9
:101480008093E8000895CF93DF931F92CDB7DEB726
:10149000FC018485958597FD05C02FEF3FEF3587CB
:1014A00024870BC0CE0101960E94CD09019719F443
:1014B000898190E002C08FEF9FEF0F90DF91CF9175
:1014C00008950F931F93CF93DF931F92CDB7DEB78D
:1014D0008C01FC018485958597FF0EC0CE01019695
:1014E0000E94CD09019719F4298130E002C02FEF45
:1014F0003FEFF80135872487F801848595850F90A3
:10150000DF91CF911F910F910895FC0184859585FE
:1015100097FD0BC09FB7F89482E08093E90080911B
:10152000F2009FBF90E0019608959FB7F89482E083
:101530008093E9008091F2009FBF90E00895CF93DF
:10154000DF93EC0180911D01882331F083E00E943C
:10155000F1071816190634F081E090E09B838A8326
:1015600080E090E0DF91CF91089510928001109279
:101570007F0188EE93E0A0E0B0E08093810190933A
:101580008201A0938301B093840185E391E090935D
:101590007E0180937D018FEF9FEF90938A0180936E
:1015A00089018091EC01811113C01092E701109222
:1015B000E60188ED91E09093E9018093E80188EFDE
:1015C00090E09093EB018093EA0181E08093EC013D
:1015D0008091DE01811137C081E08093D101809339
:1015E000D20127ED31E03093D4012093D301109242
:1015F000D6011092D50125E431E03093CE0120933D
:10160000CD011092D9011092D8011092DB011092F5
:10161000DA018093DC018093DD0181EC8093D701B6
:101620000E94D504FC0141812091D10130E0240FBA
:10163000311D2830310524F46DEC71E00E949604D0
:1016400081E08093DE01E091D801F091D9013097DB
:1016500039F486EE91E09093D9018093D8010AC0C5
:1016600080819181009711F0FC01FACF86EE91E024
:10167000918380832091EA013091EB018091DA011E
:101680009091DB01820F931F9093DB018093DA012D
:101690000895CF93DF93CDB7DEB728970FB6F894B0
:1016A000DEBF0FBECDBF789484B5826084BD84B5A3
:1016B000816084BD85B5826085BD85B5816085BD4D
:1016C00080916E00816080936E0010928100809105
:1016D000810082608093810080918100816080938D
:1016E00081008091800081608093800080919100D2
:1016F000826080939100809191008160809391003D
:10170000809190008160809390008091C1008460FE
:101710008093C1008091C10082608093C10080915C
:10172000C10081608093C1008091C300816080937B
:10173000C3008091C00082608093C0008091C2008D
:1017400081608093C20080917A00846080937A00E7
:1017500080917A00826080937A0080917A00816023
:1017600080937A0080917A00806880937A0010924A
:10177000770110926B0110926A018091D70081600D
:101780008093D70080EA8093D80089B5806189BDB5
:1017900089B5826089BD09B400FEFDCF61E070E0CB
:1017A00080E090E00E94B7078091D8008F7C806134
:1017B0008093D8008091E000807F8093E00080914A
:1017C000E1008E7E8093E1008DE08093E200559AE7
:1017D000209AEEEFFFE7859194918B3F9C4D19F491
:1017E00081E08093690168EE73E080E090E00E9400
:1017F000B7076EE1E62E61E0F62E0AE211E062E044
:10180000F80181918F010E947B0761E0F7018191CE
:101810007F010E947B07F1E001331F0781F762E03F
:1018200085E00E947B0762E080E00E947B0762E027
:1018300081E00E947B0762E082E00E947B0762E019
:1018400083E00E947B0782E193E0909310018093F4
:101850000F0180916900806380936900EA9A88EFA4
:1018600092E090930E0180930D01809169008C604D
:1018700080936900E99A01E010E0412C512C32017B
:10188000539427EDA22E21E0B22E35E4832E31E0D1
:10189000932E4BE9C42E4FE0D42E9AE2292E91E0EC
:1018A000392EE12CF12CF10181911F010E94520788
:1018B00040917801509179018130910571F0C80112
:1018C0000E2C02C0880F991F0A94E2F7482B592B5F
:1018D00050937901409378010EC00E2C02C0880FFE
:1018E000991F0A94E2F7809590958423952390930D
:1018F000790180937801FFEFEF1AFF0A27E0E216E3
:10190000F10489F660917201709173018091740104
:10191000909175010E94690E20E030E046E150E4AC
:101920000E94BF0D0E94310EA30192010E94780D0A
:1019300060937A0160916E0170916F0180917001E6
:10194000909171010E94690E20E030E046E150E480
:101950000E94BF0D0E94310EA30192010E94780DDA
:1019600060937B0180911501811103C08091780102
:1019700004C080916C0190916D010E94A40985E0E2
:101980000E945207019709F44BC0109279011092FE
:10199000780185E2282E81E0382E27E030E0F10141
:1019A00081911F012F8338870E945207409178014F
:1019B000509179012F8138858130910571F0C801EE
:1019C000022E02C0880F991F0A94E2F7482B592B68
:1019D00050937901409378010EC0022E02C0880F07
:1019E000991F0A94E2F7809590958423952390930C
:1019F0007901809378012F5F3F4F2B30310579F6C5
:101A000085E10E945207019719F01092150108C054
:101A100086E10E945207019719F081E08093150139
:101A2000909178018091790199838A8380917A01DC
:101A30008B8380917B018C8380917C018D8380914D
:101A4000DE01811133C081E08093D1018093D20106
:101A5000B092D401A092D3011092D6011092D50178
:101A60009092CE018092CD011092D9011092D801AE
:101A70001092DB011092DA018093DC018093DD018A
:101A800081EC8093D7010E94D504FC014181209113
:101A9000D10130E0240F311D2830310524F46DECE4
:101AA00071E00E94960481E08093DE0184E08E83E1
:101AB00041E050E0BE016A5F7F4F8091D0010E94FB
:101AC000F10797FD0AC08091D00145E050E0BE01CA
:101AD0006F5F7F4F80640E94F107C6010197F1F7A5
:101AE00080E090E0892B09F4D8CE0E940000C9CE96
:101AF000052E97FB1EF400940E948F0D57FD07D012
:101B00000E949D0D07FC03D04EF40C948F0D509550
:101B10004095309521953F4F4F4F5F4F08959095D9
:101B20008095709561957F4F8F4F9F4F0895EE0F71
:101B3000FF1F0590F491E02D0994A1E21A2EAA1B33
:101B4000BB1BFD010DC0AA1FBB1FEE1FFF1FA2176D
:101B5000B307E407F50720F0A21BB30BE40BF50B6A
:101B6000661F771F881F991F1A9469F760957095F3
:101B7000809590959B01AC01BD01CF0108950E9415
:101B8000D30D0C94BB0E0E94B40E58F00E94AD0E03
:101B900040F029F45F3F29F00C94A40E51110C94ED
:101BA000EF0E0C94AA0E0E94CC0E68F39923B1F3A9
:101BB000552391F3951B550BBB27AA276217730773
:101BC000840738F09F5F5F4F220F331F441FAA1F07
:101BD000A9F335D00E2E3AF0E0E832D091505040C3
:101BE000E695001CCAF72BD0FE2F29D0660F771F71
:101BF000881FBB1F261737074807AB07B0E809F057
:101C0000BB0B802DBF01FF2793585F4F3AF09E3FDB
:101C1000510578F00C94A40E0C94EF0E5F3FE4F3A2
:101C2000983ED4F3869577956795B795F7959F5F1E
:101C3000C9F7880F911D9695879597F90895E1E06A
:101C4000660F771F881FBB1F621773078407BA07C9
:101C500020F0621B730B840BBA0BEE1F88F7E09524
:101C600008950E94380E6894B1110C94EF0E0895F7
:101C70000E94D40E88F09F5798F0B92F9927B7513A
:101C8000B0F0E1F0660F771F881F991F1AF0BA9520
:101C9000C9F714C0B13091F00E94EE0EB1E0089582
:101CA0000C94EE0E672F782F8827B85F39F0B93F74
:101CB000CCF3869577956795B395D9F73EF49095D3
:101CC0008095709561957F4F8F4F9F4F0895E89451
:101CD00009C097FB3EF490958095709561957F4F74
:101CE0008F4F9F4F9923A9F0F92F96E9BB27939522
:101CF000F695879577956795B795F111F8CFFAF432
:101D0000BB0F11F460FF1BC06F5F7F4F8F4F9F4F62
:101D100016C0882311F096E911C0772321F09EE8C0
:101D2000872F762F05C0662371F096E8862F70E026
:101D300060E02AF09A95660F771F881FDAF7880F00
:101D40009695879597F9089597F99F6780E870E0D1
:101D500060E008959FEF80EC089500240A94161621
:101D6000170618060906089500240A941216130689
:101D7000140605060895092E0394000C11F4882317
:101D800052F0BB0F40F4BF2B11F460FF04C06F5F33
:101D90007F4F8F4F9F4F089557FD9058440F551F09
:101DA00059F05F3F71F04795880F97FB991F61F0DD
:101DB0009F3F79F087950895121613061406551F54
:101DC000F2CF4695F1DF08C0161617061806991FC0
:101DD000F1CF86957105610508940895E894BB27B5
:101DE00066277727CB0197F9089581E090E0F89472
:081DF0000C94FA0EF894FFCFE9
:101DF80000C18081000000FFFFFFFFF702F702F734
:101E080002F702F7020100E10000000000000607E7
:101E180008090A0B0C0D121314070D1213141516CA
:101E28001700000000220A9F0A850A430A610A383F
:0E1E38000A000000002C03D30393037703007D
:00000001FF
